{
  "contractName": "MyContract",
  "abi": [
    {
      "inputs": [],
      "stateMutability": "payable",
      "type": "constructor"
    },
    {
      "inputs": [],
      "name": "amount",
      "outputs": [
        {
          "internalType": "uint256",
          "name": "",
          "type": "uint256"
        }
      ],
      "stateMutability": "view",
      "type": "function"
    },
    {
      "inputs": [
        {
          "internalType": "uint256",
          "name": "",
          "type": "uint256"
        }
      ],
      "name": "funders",
      "outputs": [
        {
          "internalType": "address",
          "name": "",
          "type": "address"
        }
      ],
      "stateMutability": "view",
      "type": "function"
    },
    {
      "inputs": [],
      "name": "owner",
      "outputs": [
        {
          "internalType": "address",
          "name": "",
          "type": "address"
        }
      ],
      "stateMutability": "view",
      "type": "function"
    },
    {
      "inputs": [],
      "name": "fund",
      "outputs": [],
      "stateMutability": "payable",
      "type": "function"
    },
    {
      "inputs": [],
      "name": "getFunder",
      "outputs": [
        {
          "internalType": "address[]",
          "name": "",
          "type": "address[]"
        }
      ],
      "stateMutability": "view",
      "type": "function"
    },
    {
      "inputs": [
        {
          "internalType": "address",
          "name": "funder",
          "type": "address"
        }
      ],
      "name": "getFunderToAmount",
      "outputs": [
        {
          "internalType": "uint256",
          "name": "",
          "type": "uint256"
        }
      ],
      "stateMutability": "view",
      "type": "function"
    },
    {
      "inputs": [
        {
          "internalType": "address",
          "name": "to",
          "type": "address"
        }
      ],
      "name": "withdrawal",
      "outputs": [],
      "stateMutability": "nonpayable",
      "type": "function"
    },
    {
      "inputs": [],
      "name": "canceled",
      "outputs": [],
      "stateMutability": "nonpayable",
      "type": "function"
    }
  ],
  "bytecode": "0x6080604052336000806101000a81548173ffffffffffffffffffffffffffffffffffffffff021916908373ffffffffffffffffffffffffffffffffffffffff160217905550346001819055506001600360006101000a81548160ff021916908315150217905550610ac1806100756000396000f3fe60806040526004361061007b5760003560e01c80639c5e5e0e1161004e5780639c5e5e0e14610116578063aa8c217c14610153578063b60d42881461017e578063dc0d3dff146101885761007b565b80633f9942ff146100805780638abb9845146100975780638da5cb5b146100c257806396131049146100ed575b600080fd5b34801561008c57600080fd5b506100956101c5565b005b3480156100a357600080fd5b506100ac610433565b6040516100b991906108dd565b60405180910390f35b3480156100ce57600080fd5b506100d76104e1565b6040516100e491906108c2565b60405180910390f35b3480156100f957600080fd5b50610114600480360381019061010f91906107cd565b610505565b005b34801561012257600080fd5b5061013d600480360381019061013891906107cd565b61056f565b60405161014a91906108ff565b60405180910390f35b34801561015f57600080fd5b506101686105d8565b60405161017591906108ff565b60405180910390f35b6101866105de565b005b34801561019457600080fd5b506101af60048036038101906101aa91906107f6565b610764565b6040516101bc91906108c2565b60405180910390f35b60008054906101000a900473ffffffffffffffffffffffffffffffffffffffff1673ffffffffffffffffffffffffffffffffffffffff163373ffffffffffffffffffffffffffffffffffffffff161461021d57600080fd5b60011515600360009054906101000a900460ff1615151461023d57600080fd5b60005b6002805490508110156103ae5760028181548110610287577f4e487b7100000000000000000000000000000000000000000000000000000000600052603260045260246000fd5b9060005260206000200160009054906101000a900473ffffffffffffffffffffffffffffffffffffffff1673ffffffffffffffffffffffffffffffffffffffff166108fc6004600060028581548110610309577f4e487b7100000000000000000000000000000000000000000000000000000000600052603260045260246000fd5b9060005260206000200160009054906101000a900473ffffffffffffffffffffffffffffffffffffffff1673ffffffffffffffffffffffffffffffffffffffff1673ffffffffffffffffffffffffffffffffffffffff168152602001908152602001600020549081150290604051600060405180830381858888f1935050505015801561039a573d6000803e3d6000fd5b5080806103a6906109e5565b915050610240565b5060008054906101000a900473ffffffffffffffffffffffffffffffffffffffff1673ffffffffffffffffffffffffffffffffffffffff166108fc479081150290604051600060405180830381858888f19350505050158015610415573d6000803e3d6000fd5b506000600360006101000a81548160ff021916908315150217905550565b606060011515600360009054906101000a900460ff1615151461045557600080fd5b60028054806020026020016040519081016040528092919081815260200182805480156104d757602002820191906000526020600020905b8160009054906101000a900473ffffffffffffffffffffffffffffffffffffffff1673ffffffffffffffffffffffffffffffffffffffff168152602001906001019080831161048d575b5050505050905090565b60008054906101000a900473ffffffffffffffffffffffffffffffffffffffff1681565b60011515600360009054906101000a900460ff1615151461052557600080fd5b8073ffffffffffffffffffffffffffffffffffffffff166108fc479081150290604051600060405180830381858888f1935050505015801561056b573d6000803e3d6000fd5b5050565b600060011515600360009054906101000a900460ff1615151461059157600080fd5b600460008373ffffffffffffffffffffffffffffffffffffffff1673ffffffffffffffffffffffffffffffffffffffff168152602001908152602001600020549050919050565b60015481565b60011515600360009054906101000a900460ff161515146105fe57600080fd5b34600160008282546106109190610953565b925050819055506000600460003373ffffffffffffffffffffffffffffffffffffffff1673ffffffffffffffffffffffffffffffffffffffff16815260200190815260200160002054141561070b5734600460003373ffffffffffffffffffffffffffffffffffffffff1673ffffffffffffffffffffffffffffffffffffffff168152602001908152602001600020819055506002339080600181540180825580915050600190039060005260206000200160009091909190916101000a81548173ffffffffffffffffffffffffffffffffffffffff021916908373ffffffffffffffffffffffffffffffffffffffff160217905550610762565b34600460003373ffffffffffffffffffffffffffffffffffffffff1673ffffffffffffffffffffffffffffffffffffffff168152602001908152602001600020600082825461075a9190610953565b925050819055505b565b6002818154811061077457600080fd5b906000526020600020016000915054906101000a900473ffffffffffffffffffffffffffffffffffffffff1681565b6000813590506107b281610a5d565b92915050565b6000813590506107c781610a74565b92915050565b6000602082840312156107df57600080fd5b60006107ed848285016107a3565b91505092915050565b60006020828403121561080857600080fd5b6000610816848285016107b8565b91505092915050565b600061082b8383610837565b60208301905092915050565b610840816109a9565b82525050565b61084f816109a9565b82525050565b60006108608261092a565b61086a8185610942565b93506108758361091a565b8060005b838110156108a657815161088d888261081f565b975061089883610935565b925050600181019050610879565b5085935050505092915050565b6108bc816109db565b82525050565b60006020820190506108d76000830184610846565b92915050565b600060208201905081810360008301526108f78184610855565b905092915050565b600060208201905061091460008301846108b3565b92915050565b6000819050602082019050919050565b600081519050919050565b6000602082019050919050565b600082825260208201905092915050565b600061095e826109db565b9150610969836109db565b9250827fffffffffffffffffffffffffffffffffffffffffffffffffffffffffffffffff0382111561099e5761099d610a2e565b5b828201905092915050565b60006109b4826109bb565b9050919050565b600073ffffffffffffffffffffffffffffffffffffffff82169050919050565b6000819050919050565b60006109f0826109db565b91507fffffffffffffffffffffffffffffffffffffffffffffffffffffffffffffffff821415610a2357610a22610a2e565b5b600182019050919050565b7f4e487b7100000000000000000000000000000000000000000000000000000000600052601160045260246000fd5b610a66816109a9565b8114610a7157600080fd5b50565b610a7d816109db565b8114610a8857600080fd5b5056fea264697066735822122034beb306b574314293bbdcf86a2b52d0e86d26ecdfdd53021b23834838e9ab6a64736f6c63430008040033",
  "immutableReferences": {},
  "source": "pragma solidity ^0.8.4;\r\n\r\n//  \r\ncontract MyContract {\r\n\r\n    //   \r\n    address public owner;\r\n    uint256 public amount;\r\n    address[] public funders;\r\n    bool isOpened;\r\n    \r\n    mapping(address => uint256) funderToAmount;\r\n\r\n    //  (event)\r\n\r\n    // \r\n    constructor() payable {\r\n        owner = msg.sender;\r\n        amount = msg.value;\r\n        isOpened = true;\r\n    }\r\n\r\n    //  (event)\r\n\r\n\r\n    //   (modifier)\r\n    modifier onlyOwner() {\r\n        require(msg.sender == owner);\r\n        _;\r\n    }\r\n\r\n    //  () \r\n    function fund() public payable {\r\n        require(isOpened == true);\r\n\r\n        amount += msg.value;\r\n        if (funderToAmount[msg.sender] == 0) {\r\n            funderToAmount[msg.sender] = msg.value;\r\n            funders.push(msg.sender);\r\n        } else {\r\n            funderToAmount[msg.sender] += msg.value;\r\n        }\r\n    }\r\n\r\n    function getFunder() public view  returns ( address[] memory ) {\r\n        require(isOpened == true);\r\n        return funders;\r\n    }\r\n\r\n    function getFunderToAmount(address funder) public  view returns ( uint256 ){\r\n        require(isOpened == true);\r\n        return funderToAmount[funder];\r\n    }\r\n\r\n    function withdrawal(address to) public {\r\n        require(isOpened == true);\r\n        payable(to).transfer(address(this).balance);\r\n    }\r\n\r\n    function canceled() public onlyOwner {\r\n        require(isOpened == true);\r\n        for (uint256 i; i < funders.length; i++) {\r\n            payable(funders[i]).transfer(funderToAmount[funders[i]]);\r\n        }\r\n        payable(owner).transfer(address(this).balance);\r\n        isOpened = false;\r\n    }\r\n}",
  "sourcePath": "C:\\Users\\USER\\Desktop\\ \\S07P22C208\\blockchain\\contracts\\MyContract.sol",
  "compiler": {
    "name": "solc",
    "version": "0.8.4+commit.c7e474f2.Emscripten.clang"
  },
  "schemaVersion": "3.4.10",
  "updatedAt": "2022-09-19T08:02:30.724Z",
  "devdoc": {
    "kind": "dev",
    "methods": {},
    "version": 1
  },
  "userdoc": {
    "kind": "user",
    "methods": {},
    "version": 1
  }
}